:020000040800F2
:1000000000800120C5100008151100081511000816
:100010001511000815110008151100080000000056
:1000200000000000000000000000000015110008A2
:10003000151100080000000015110008A51E000899
:100040000000000015110008151100081511000826
:1000500015110008151100081511000815110008E8
:1000600015110008151100081511000815110008D8
:1000700015110008151100081511000815110008C8
:1000800015110008151100081511000800000000E6
:100090000000000000000000000000001511000832
:1000A0001511000815110008151100081511000898
:1000B0001511000815110008151100081511000888
:1000C0001511000815110008151100081511000878
:1000D0001511000815110008611F0008000000003C
:1000E0001511000815110008151100080000000086
:1000F00000000000000000000000000015110008D2
:100100000000000015110008151100081511000865
:1001100000000000000000000000000000000000DF
:100120001511000815110008151100081511000817
:100130001511000800000000000000000000000091
:100140000000000000000000000000001511000881
:1001500015110008151100081511000815110008E7
:100160001511000815110008000000000000000033
:10017000000000000000000000000000000000007F
:10018000000000000000000000000000000000006F
:04019000151100083D
:1001A00010B5054C237833B9044B13B10448AFF3B1
:1001B00000800123237010BD7800002000000000A3
:1001C000944D000808B5034B1BB103490348AFF336
:1001D000008008BD000000007C000020944D000855
:1001E00001F0FF01102A2BDB10F0070F08D010F8E8
:1001F000013B013A8B422DD010F0070F42B3F6D1EC
:10020000F0B441EA012141EA014122F007047FF004
:1002100000070023F0E80256083C85EA010586EA5B
:10022000010685FA47F5A3FA87F586FA47F6A5FA97
:1002300087F68EB9EED1F0BC01F0FF0102F00702A3
:1002400032B110F8013B013A83EA010313B1F8D14E
:100250000020704701387047002D06BF354603382F
:10026000073815F0010F07D1013015F4807F02BF68
:10027000013015F4C03F0130F0BC0138704700BFB9
:1002800080B584B000AFF860B96011461A460B46DD
:10029000FB711346BB80BB68BA881A80BB68FA79C9
:1002A0001A71BB68FA68DA60B86800F036F800BF07
:1002B0001037BD4680BD80B483B000AF78607B68E6
:1002C0005B8818460C37BD465DF8047B704780B4E8
:1002D00083B000AF78607B685A887B681B889A423D
:1002E0002CBF01230023DBB218460C37BD465DF856
:1002F000047B704780B483B000AF78607B68DA8895
:100300007B681B899A420CBF01230023DBB218468D
:100310000C37BD465DF8047B704780B582B000AFF6
:1003200078607B680022DA807B6800221A817B6813
:1003300000225A807B68D8687B681B881A46002197
:1003400000F099F800BF0837BD4680BD80B584B085
:1003500000AF7860396072B600BF0023FB7321E004
:10036000FB7B3A681A447B68DB687968C9880B4470
:1003700012781A707B68DB8801339BB21AB27B68F3
:100380001B88013B9BB21BB213401BB29AB27B6825
:10039000DA807B685B8801339AB27B685A80FB7B8A
:1003A0000133FB737B681B79FA7B9A42D8D3786858
:1003B000FFF78DFF0346002B11D07B681A897B68FD
:1003C0001B799BB213449BB21AB27B681B88013B1A
:1003D0009BB21BB213401BB29AB27B681A8162B601
:1003E00000BF002318461037BD4680BD80B584B0DD
:1003F00000AF7860396072B600BF7868FFF77AFFA7
:100400000346002B06D07B6800225A8062B600BFEC
:1004100002232CE00023FB7321E07B68DB687A6811
:1004200012891A44FB7B39680B4412781A707B6876
:100430001B8901339BB21AB27B681B88013B9BB2BC
:100440001BB213401BB29AB27B681A817B685B882F
:10045000013B9AB27B685A80FB7B0133FB737B685C
:100460001B79FA7B9A42D8D362B600BF00231846A4
:100470001037BD4680BD80B483B000AF78600B46B6
:10048000FB7013463B8004E07B685A1C7A60FA7864
:100490001A703B885A1E3A80002BF5D100BF00BF6E
:1004A0000C37BD465DF8047B7047000080B582B014
:1004B00000AF0121022001F0ABFA4FF400533B6082
:1004C00001233B7102237B710023BB710223FB716B
:1004D0003B461946034800F021FF00BF0837BD46E0
:1004E00080BD00BF0004024080B582B000AF012192
:1004F000012001F08DFA4FF480633B6001233B71D2
:1005000002237B710023BB710223FB713B4619461A
:10051000034800F003FF00BF0837BD4680BD00BFA1
:100520000000024080B582B000AF0121012001F03F
:100530006FFA4FF400633B6001233B7102237B7130
:100540000023BB710223FB713B461946034800F0B0
:10055000E5FE00BF0837BD4680BD00BF0000024079
:1005600080B582B000AF0121012001F051FA0123D2
:100570003B6001233B7102237B710023BB7102238B
:10058000FB713B461946034800F0C8FE00BF083720
:10059000BD4680BD0000024080B483B000AF7860EB
:1005A0000B467B8013467B707B78012B02D17B68E6
:1005B0007A881A837B78002B02D17B687A885A83E9
:1005C00000BF0C37BD465DF8047B704780B483B034
:1005D00000AF78600B467B8013467B707B78012BE5
:1005E00002D17B687A881A837B78002B02D17B68E2
:1005F0007A885A8300BF0C37BD465DF8047B70478C
:1006000080B483B000AF78600B467B8013467B706C
:100610007B78012B02D17B687A881A837B78002B48
:1006200002D17B687A885A8300BF0C37BD465DF8DB
:10063000047B704780B483B000AF00237B6002E08E
:100640007B6801337B607B68044A9342F8D900BF22
:1006500000BF0C37BD465DF8047B70471FA1070043
:1006600080B582B000AF0121022001F0D1F908234A
:100670003B6000233B7102237B710123FB713B46EE
:100680001946034800F04AFE00BF0837BD4680BD4A
:100690000004024080B582B000AF0121022001F0C9
:1006A000B7F901233B6000233B7102237B710123D7
:1006B000FB713B461946034800F030FE00BF083787
:1006C000BD4680BD0004024080B582B000AF01216C
:1006D000022001F09DF910233B6000233B710223AF
:1006E0007B710123FB713B461946034800F016FE5F
:1006F00000BF0837BD4680BD0004024080B582B00F
:1007000000AF0121012001F083F910233B60002399
:100710003B7102237B710123FB713B461946034861
:1007200000F0FCFD00BF0837BD4680BD0000024060
:1007300080B485B000AF78600B467B800023FB73EC
:100740007B681A697B881340002B02D00123FB735E
:1007500001E00023FB73FB7B18461437BD465DF8B0
:10076000047B704780B485B000AF78600B467B8017
:100770000023FB737B681A697B881340002B02D02F
:100780000123FB7301E00023FB73FB7B1846143746
:10079000BD465DF8047B704780B582B000AF012193
:1007A000042001F035F94FF400733B6001233B71E5
:1007B00002237B710023BB710223FB713B46194668
:1007C000034800F0ABFD00BF0837BD4680BD00BF49
:1007D0000008024080B483B000AF78600B467B8095
:1007E00013467B707B78012B02D17B687A881A8351
:1007F0007B78002B02D17B687A885A8300BF0C3744
:10080000BD465DF8047B704780B582B000AF00F054
:10081000C9F80123FB710123BB7101237B71FFF731
:10082000BBFFFFF743FEFFF71BFFFFF77BFEFFF762
:100830005BFEFFF72FFFFFF747FFFFF75FFFFFF7B5
:100840008FFE00F0CDFA01F04FFA08213948FFF78A
:100850006FFF0346002B03D1FFF7ECFE0223FB7171
:1008600001213448FFF77EFF0346002B03D1FFF739
:10087000E1FE0123FB71FB79022B3FD1FFF7DAFE8A
:1008800001224FF400712C48FFF7A4FFFFF7D2FEBE
:1008900000224FF400712848FFF79CFF01224FF41B
:1008A00000512448FFF778FEFFF7C4FE00224FF402
:1008B00000512048FFF770FEFFF7BCFE01224FF405
:1008C00080611E48FFF782FEFFF7B4FE00224FF45E
:1008D00080611A48FFF77AFEFFF7ACFE01224FF461
:1008E00000611648FFF78CFEFFF7A4FE00224FF4CC
:1008F00000611248FFF784FEFFF79CFEFB79012B95
:100900009FD100224FF400510A48FFF745FE002214
:100910004FF480610948FFF759FE00224FF400614F
:100920000648FFF76DFE00224FF400710248FFF702
:1009300051FF86E700040240000802400000024028
:1009400080B584B000AF786001F0C2F9F86000BFF4
:1009500001F0BEF903461946F86800F009F80246AE
:100960007B689342F4D200BF00BF1037BD4680BD04
:1009700080B485B000AF786039603A687B689A428D
:1009800004D33A687B68D31AFB6004E03A687B685A
:10099000D31A013BFB60FB6818461437BD465DF86F
:1009A000047B704780B582B002AF00F0EBFB01F032
:1009B000BBF800F035F800F063F801F081FA00218F
:1009C000144801F05FFC134801F0A3FC12491148E0
:1009D00002F0B8FDFF230093FF23FF2200210D4802
:1009E00002F08FFE0023009300230022012109481A
:1009F00002F087FE074802F07FFF41F2883000F0E6
:100A000007FB01F065F90346044A136000BFBD46C9
:100A100080BD00BF94000020D84E0008480100208F
:100A200080B582B000AF0121072000F0F1FF012363
:100A30003B7103237B710023BB710023FB714FF4D7
:100A400068733B603B4619460A4800F067FC4FF468
:100A500088633B603B461946074800F05FFC8023F3
:100A60003B603B461946054800F058FC00BF08377C
:100A7000BD4680BD00000240000402400008024064
:100A800080B586B000AF01214FF4001000F0E0FF08
:100A90001D4BBB600023BB814BF6FF73FB81002322
:100AA0003B824FF480637B824FF48043BB8207F12B
:100AB00008031946154800F021FD0121134800F0F4
:100AC000DFFD0121022000F0A3FF4FF440733B60E3
:100AD00002233B7102237B710123BB710023FB7155
:100AE0003B4619460A4800F019FC04220821084830
:100AF00000F0BAFC04220921054800F0B5FC00BF53
:100B00001837BD4680BD00BF801A06000054004063
:100B10000004024080B500AF00BF4FF400310A4826
:100B200000F09AFE0346002BF7D10121064800F0A1
:100B3000C7FD00BF0549044800F05EFE0346002BD8
:100B4000F8D000BF00BF80BD00540040010003008A
:100B500080B582B000AF03460A46FB711346BB71F5
:100B6000BA79FB7919460F4800F0EAFDBB79002BF2
:100B700008D100BF0C490B4800F03EFE0346002B95
:100B8000F8D00AE0BB79012B07D100BF074905481F
:100B900000F032FE0346002BF8D000BF0837BD46F8
:100BA00080BD00BF00540040820007000200030027
:100BB00080B582B000AF0346FB71FB791946084847
:100BC00000F0FCFD00BF0749054800F015FE034694
:100BD000002BF8D000BF00BF0837BD4680BD00BF66
:100BE000005400408400070080B500AF0121024896
:100BF00000F086FD00BF80BD0054004080B500AF0E
:100C00000021084800F0BAFD00BF0749054800F080
:100C1000F3FD0346002BF8D0024800F0DFFD034649
:100C2000184680BD005400404000030080B500AF6E
:100C30000121084800F0A2FD00BF0749054800F067
:100C4000DBFD0346002BF8D0024800F0C7FD034649
:100C5000184680BD005400404000030090B587B0A6
:100C600000AFB9607A601A460346FB731346BB7344
:100C7000BB681B787B75FFF74DFFFB7B5B00DBB22E
:100C800000211846FFF764FF0123FB7509E0FB7D97
:100C9000BA6813441B781846FFF78AFFFB7D0133BF
:100CA000FB75FA7D7B7D9A42F1D33B8D002B03D0FF
:100CB0003B8D1846FFF744FEFFF796FFFFF72AFF2C
:100CC000FB7B5B00DBB201211846FFF741FF0023ED
:100CD000BB7516E0BA7DBB7B013B9A4207D1BB7D59
:100CE0007A68D418FFF78AFF0346237006E0BB7DBD
:100CF0007A68D418FFF79AFF03462370BB7D01334F
:100D0000BB75BA7DBB7B9A42E4D3FFF76DFF00BF92
:100D10001C37BD4690BD000080B586B002AF154BB4
:100D20001B883B810023BB724EF20233BB8007F16C
:100D30000802391D0423009303234020FFF78EFF90
:100D40003B7A1B027A7A1344FB60FB6844F2A442AC
:100D500002FB03F31B0CA3F592530D3BFB60FB68F6
:100D6000054AA2FB03235B09FB60FB6818461037AA
:100D7000BD4680BDAC4D00081F85EB5180B586B0E7
:100D800002AF154B1B883B810023BB724EF202530E
:100D9000BB8007F10802391D08230093032340207C
:100DA000FFF75CFF3B7A1B027A7A1344FB60FB6817
:100DB00043F2D40202FB03F31B0CA3F51673FB6092
:100DC000FB68064AA2FB03235B09FB60FB6818462D
:100DD0001037BD4680BD00BFAC4D00081F85EB51EC
:100DE00080B582B002AF00F073FF0346584A13602B
:100DF000574B1A68574B1B689A420AD3544B1A68D0
:100E0000544B1B68D21A544B1B681344524A13604C
:100E10000AE0504B1A684E4B1B68D21A4E4B1B68A7
:100E20001344013B4C4A13604B4B1B68B3F57A7F6C
:100E30000BD1FFF771FF0346DAB2484B1A70FFF788
:100E40009DFF0346DAB2464B1A70434B1B68B3F55D
:100E5000FA6F76D3FFF760FF0346DAB2414B1A70A0
:100E6000FFF78CFF0346DAB23F4B1A703D4B1A78FE
:100E70003A4B1B789A4207D93A4B1B781A46374BA4
:100E80001B78D31A012B29DC364B1A78334B1B788D
:100E90009A4207D2334B1B781A46304B1B78D31A31
:100EA000022B1BDD304B1A782D4B1B789A4207D949
:100EB0002D4B1B781A462A4B1B78D31A012B0DDCBD
:100EC000294B1A78264B1B789A4237D2264B1B782F
:100ED0001A46234B1B78D31A022B2FDC234B00938B
:100EE000002320220021224802F068FA1422002167
:100EF000204803F0CBFA1B4B1B781A461E491D48AD
:100F000003F0A4FA1B4B009300233422002118485D
:100F100002F054FA14220021184803F0B7FA124BD9
:100F20001B781A461649154803F090FA134B0093A4
:100F30000023482200210E4802F040FA064B00220E
:100F40001A60034B1B68034A136000BFBD4680BD97
:100F50004C01002048010020A4010020A80100202D
:100F6000A9010020AA010020AB010020B04D00081B
:100F70009400002054010020B84D000868010020B2
:100F8000C84D000880B582B002AF194B0093002312
:100F900020220021174802F011FA142200211648DD
:100FA00003F074FA154B1B781A461549124803F0E2
:100FB0004DFA114B00930023342200210D4802F01A
:100FC000FDF9142200210F4803F060FA0E4B1B7844
:100FD0001A460E490B4803F039FA0A4B00930023D6
:100FE00048220021034802F0E9F900BFBD4680BD58
:100FF000B04D0008940000207C010020A8010020D2
:10100000B84D000890010020A9010020C84D00083B
:1010100080B584B002AF78600C4B1B68FF2B05D005
:101020000A4B1B68DBB2184600F002FE0023009357
:10103000074BFF227968074800F098FD03461A46DF
:10104000024B1A6000BF0837BD4680BD500100202A
:10105000850F0008DC4D000880B586B000AF7860D1
:10106000144A154BD31A7B617B693B61134B1B6898
:10107000002B02D1114B124A1A60104B1A687B6880
:1010800013443A699A4207D203F008FA03460C2245
:101090001A604FF0FF3309E0084B1B68FB60074BF9
:1010A0001A687B681344054A1360FB6818461837B2
:1010B000BD4680BD0080012000040000AC0100207E
:1010C000A81400200D48854600F026F80C480D496C
:1010D0000D4A002302E0D458C4500433C4188C4293
:1010E000F9D30A4A0A4C002301E013600432A242F9
:1010F000FBD303F0D9F9FFF787FBFEE7008001205F
:101100000000002078000020BC5600087800002075
:10111000A4140020FEE7000080B500AF164BD3F802
:101120008830154A43F47003C2F88830134B1B68AB
:10113000124A43F001031360104B00229A600F4BD8
:101140001B680E4A23F0847323F4803313600B4B27
:101150000B4A5A60094B1B68084A23F4802313602A
:10116000064B0022DA6000F089F8034B4FF0006272
:101170009A6000BF80BD00BF00ED00E00038024073
:101180001030002480B487B000AF00233B610023FF
:101190007B610223FB600023BB6002237B60324B38
:1011A0009B6803F00C033B613B69042B07D0082BC1
:1011B00009D0002B3DD12D4B2D4A1A603DE02B4B21
:1011C0002C4A1A6039E0284B5B689B0D03F0010341
:1011D000BB60254B5B6803F03F037B60BB68002B63
:1011E0000CD0244A7B68B2FBF3F31F4A5268920981
:1011F000C2F3080202FB03F37B610BE01C4A7B682D
:10120000B2FBF3F3184A52689209C2F3080202FBD8
:1012100003F37B61144B5B681B0C03F00303013386
:101220005B00FB607A69FB68B2FBF3F30F4A136063
:1012300003E00E4B0E4A1A6000BF0B4B9B681B0964
:1012400003F00F030C4AD35CDBB23B61074B1A6817
:101250003B6922FA03F3054A136000BF1C37BD4601
:101260005DF8047B704700BF00380240000000209A
:101270000024F40040787D010400002080B400AF19
:10128000224B1B6C214A43F080531364204B1B6894
:101290001F4A43F4404313601C4B1C4A9B689360F5
:1012A0001A4B1A4A9B689360184B9B68174A43F481
:1012B00080539360154B174A5A60144B1B68134AAE
:1012C00043F08073136000BF104B1B6803F0007382
:1012D000002BF9D0104B40F202621A600B4B9B6856
:1012E0000A4A23F003039360084B9B68074A43F0C4
:1012F0000203936000BF054B9B6803F00C03082BAF
:10130000F9D100BFBD465DF8047B7047003802404C
:101310000070004010540108003C024080B487B0C7
:1013200000AF7860396000237B6100233B610023BC
:10133000FB6000237B6176E001227B6902FA03F304
:101340003B613B681B683A691340FB60FA683B6984
:101350009A4265D17B681A687B695B00032101FAB8
:1013600003F3DB431A407B681A607B681A683B68AA
:101370001B7919467B695B0001FA03F31A437B680A
:101380001A603B681B79012B03D03B681B79022B49
:101390002ED17B689A687B695B00032101FA03F315
:1013A000DB431A407B689A607B689A683B685B798C
:1013B00019467B695B0001FA03F31A437B689A6064
:1013C0007B685A687B699BB2194601238B40DB43DB
:1013D0001A407B685A607B685B683A68927911466C
:1013E0007A6992B201FA02F292B21A437B685A60A9
:1013F0007B68DA687B699BB25B00032101FA03F327
:10140000DB431A407B68DA607B68DA683B68DB792B
:1014100019467B695B0001FA03F31A437B68DA60C3
:101420007B6901337B617B690F2B85D900BF1C373A
:10143000BD465DF8047B704780B483B000AF786030
:101440000B467B8013467B707B78002B03D07B6838
:101450007A881A8302E07B687A885A8300BF0C3747
:10146000BD465DF8047B704780B485B000AF7860FE
:101470000B467B8013467B700023FB600023BB6020
:101480007A787B8803F007039B0002FA03F3FB6082
:101490007B88DB089BB21A467B68083253F822200F
:1014A0007B8803F007039B000F2101FA03F3DB4362
:1014B0007988C90889B2084602EA03017B6800F10D
:1014C000080243F822107B88DB089BB21A467B682F
:1014D000083253F82230FA681343BB607B88DB087C
:1014E0009BB21A467B680832B96843F8221000BFE5
:1014F0001437BD465DF8047B7047000080B58AB0A4
:1015000000AF786039600023FB8400237B840423D0
:10151000BB84574BFB617B689B88FB84FB8C23F06F
:101520003F03FB8407F10C03184600F0C9F97B69FF
:10153000FB61FB694F4AA2FB03239B0C7B84FA8C63
:101540007B8C1343FB847B68FA8C9A807B681B88B6
:101550009BB223F001039AB27B681A800023FB84BC
:101560003B681B68444A934215D83B681B685B0084
:10157000FA69B2FBF3F3BB84BB8C032B01D80423C1
:10158000BB84FA8CBB8C1343FB847B8C01339AB2F3
:101590007B681A8440E03B68DB884BF6FF7293421D
:1015A00009D13B681A6813465B001344FA69B2FB21
:1015B000F3F3BB840EE03B681A6813469B001344A8
:1015C0009A001344FA69B2FBF3F3BB84BB8C43F477
:1015D0008043BB84BB8CC3F30B03002B03D1BB8CB8
:1015E00043F00103BB84BA8CFB8C13439BB26FEABC
:1015F00043436FEA5343FB847B8C4FF4967202FBA8
:1016000003F31E4A82FB03129211DB17D31A9BB21B
:1016100001339AB27B681A847B68FA8C9A837B6860
:101620001B889BB243F001039AB27B681A807B68E7
:101630001B88FB84FB8C23F4816323F00203FB846F
:101640003B689A883B685B8913439AB2FB8C1343CF
:10165000FB847B68FA8C1A803B689A893B681B89FB
:1016600013439AB27B681A8100BF2837BD4680BDFC
:1016700000127A0083DE1B43A0860100D34D621066
:1016800080B483B000AF78600B46FB70FB78002B12
:1016900008D07B681B889BB243F001039AB27B6839
:1016A0001A8007E07B681B889BB223F001039AB283
:1016B0007B681A8000BF0C37BD465DF8047B70471D
:1016C00080B483B000AF78600B46FB70FB78002BD2
:1016D00008D07B681B889BB243F480739AB27B6806
:1016E0001A8007E07B681B889BB223F480739AB250
:1016F0007B681A8000BF0C37BD465DF8047B7047DD
:1017000080B483B000AF78600B46FB70FB78002B91
:1017100008D07B681B889BB243F400739AB27B6845
:101720001A8007E07B681B889BB223F400739AB28F
:101730007B681A8000BF0C37BD465DF8047B70479C
:1017400080B483B000AF78600B46FB701346BB706B
:10175000BB78002B04D0FB7843F00103FB7003E05F
:10176000FB7823F00103FB70FB789AB27B681A8246
:1017700000BF0C37BD465DF8047B704780B483B072
:1017800000AF78600B46FB70FB78002B08D07B68BD
:101790001B889BB243F480639AB27B681A8007E08F
:1017A0007B681B889BB223F480639AB27B681A80A3
:1017B00000BF0C37BD465DF8047B704780B483B032
:1017C00000AF78600B46FB70FB789AB27B681A8298
:1017D00000BF0C37BD465DF8047B704780B483B012
:1017E00000AF78607B681B8A9BB2DBB218460C376F
:1017F000BD465DF8047B704780B487B000AF786069
:10180000396000233B610023FB600023BB600023A1
:10181000FB757B689B8A9BB2FB607B681B8B9BB2D2
:10182000BB60BB681B04BB60FA68BB68134323F052
:101830007F433B613A693B6813403A689A4202D160
:101840000123FB7501E00023FB75FB7D18461C3767
:10185000BD465DF8047B704780B487B000AF786008
:1018600039600023FB7500233B610023FB607B682C
:10187000FB603B681B0F3B613B6823F07F433B6091
:101880003B69002B03D0FB681433FB6005E03B6829
:101890001B0C3B60FB681833FB60FB681A683B68F5
:1018A0001340002B02D00123FB7501E00023FB75E0
:1018B000FB7D18461C37BD465DF8047B7047000071
:1018C00080B489B000AF78600023BB6100237B61E6
:1018D0000023FB6102233B610023FB600223BB600A
:1018E000474B9B6803F00C03BB61BB69042B07D01B
:1018F000082B09D0002B3DD17B68424A1A603DE09D
:101900007B68414A1A6039E03D4B5B689B0D03F0F0
:101910000103FB603A4B5B6803F03F03BB60FB686D
:10192000002B0CD0384ABB68B2FBF3F3344A526840
:101930009209C2F3080202FB03F3FB610BE0314A98
:10194000BB68B2FBF3F32E4A52689209C2F3080255
:1019500002FB03F3FB612A4B5B681B0C03F00303E0
:1019600001335B003B61FA693B69B2FBF3F27B68D0
:101970001A6003E07B68234A1A6000BF204B9B6813
:1019800003F0F003BB61BB691B09BB611F4ABB6964
:1019900013441B78DBB27B617B681A687B69DA4091
:1019A0007B685A60164B9B6803F4E053BB61BB69CC
:1019B0009B0ABB61154ABB6913441B78DBB27B6190
:1019C0007B685A687B69DA407B689A600C4B9B683D
:1019D00003F46043BB61BB695B0BBB610B4ABB6932
:1019E00013441B78DBB27B617B685A687B69DA4001
:1019F0007B68DA6000BF2437BD465DF8047B704722
:101A0000003802400024F40040787D0114000020DA
:101A100080B483B000AF78600B46FB70FB78002B7E
:101A200006D00A4B1A6B09497B6813430B6306E027
:101A3000064B1A6B7B68DB43044913400B6300BF02
:101A40000C37BD465DF8047B704700BF003802408C
:101A500080B483B000AF78600B46FB70FB78002B3E
:101A600006D00A4B1A6C09497B6813430B6406E0E5
:101A7000064B1A6C7B68DB43044913400B6400BFC0
:101A80000C37BD465DF8047B704700BF003802404C
:101A900080B483B000AF03463960FB7197F907301B
:101AA000002B0BDA3B68DAB20C49FB7903F00F0329
:101AB000043B1201D2B20B441A7609E03B68DAB259
:101AC000074997F907301201D2B20B4483F800237B
:101AD00000BF0C37BD465DF8047B704700ED00E0A9
:101AE00000E100E080B582B000AF78607B68013B28
:101AF000B3F1807F01D301230FE00A4A7B68013BE9
:101B000053600F214FF0FF30FFF7C2FF054B00225B
:101B10009A60044B07221A60002318460837BD4616
:101B200080BD00BF10E000E080B584B000AF3B4650
:101B30001846FFF7C5FE3B680A4AA2FB03239B0930
:101B40001846FFF7CFFF01214FF0FF30FFF7A0FF4E
:101B50004FF4C07200210448FEF78DFC00BF10371F
:101B6000BD4680BDD34D6210B001002090B587B056
:101B700000AFF860B9603B601346FB710023FB7552
:101B80004CE0FA7D294913465B001344DB000B440B
:101B900010331B68002B3ED1FA7D244913465B00AD
:101BA0001344DB000B44FA681A60FA7D1F491346A0
:101BB0005B001344DB000B4410333A681A60FA7D73
:101BC0001A4913465B001344DB000B440C33FA79CB
:101BD0001A70FA7D154913465B001344DB000B4471
:101BE0001433BA6A1A60FC7D00F072F801460F4A9D
:101BF00023465B002344DB00134404331960FA7D61
:101C00000A4913465B001344DB000B440833BA68EF
:101C10001A60FB7D06E0FB7D0133FB75FB7D0F2B1E
:101C2000AFD9FF2318461C37BD4690BDB001002038
:101C300080B483B000AF0346FB71FB790F2B0AD849
:101C4000FA79224913465B001344DB000B4410333E
:101C50001B68002B01D1002331E0FA791B491346A0
:101C60005B001344DB000B4400221A60FA79174929
:101C700013465B001344DB000B44103300221A6050
:101C8000FA79124913465B001344DB000B440C3312
:101C900000221A70FA790D4913465B001344DB00E9
:101CA0000B44083300221A60FA79084913465B0096
:101CB0001344DB000B44043300221A60012318464E
:101CC0000C37BD465DF8047B704700BFB0010020B3
:101CD00080B400AF034B1B681846BD465DF8047B1B
:101CE000704700BF3003002080B584B000AF0023F0
:101CF000FB7368E0FA7B374913465B001344DB0053
:101D00000B4410331B68002B5AD0FB7B184600F0A5
:101D100063F80346002B53D0FA7B2E4913465B0031
:101D20001344DB000B4410331B68BB60FA7B29496A
:101D300013465B001344DB000B4414331B687B60C9
:101D4000FA7B244913465B001344DB000B440C333D
:101D50001B78DBB2FF2B20D0FA7B1E4913465B00B9
:101D60001344DB000B440C331B78DBB2002B14D084
:101D7000FA7B184913465B001344DB000B440C3319
:101D80001B78DBB2013BD8B2124913465B00134407
:101D9000DB000B440C3302461A70FA7B0D491346E4
:101DA0005B001344DB000B440C331B78DBB2002BCD
:101DB00003D1FB7B1846FFF73BFFBB687868984769
:101DC000FB7B0133FB73FB7B0F2B93D900BF1037D9
:101DD000BD4680BDB001002080B584B000AF034691
:101DE000FB710023FB6072B6FFF772FFB860FB79EE
:101DF0000F2B0AD8FA792A4913465B001344DB00FB
:101E00000B4410331B68002B02D162B6002342E062
:101E1000FA79234913465B001344DB000B44043377
:101E20001B68BA689A420CD3FA791D4913465B00C5
:101E30001344DB000B4404331B68BA68D31AFB60FD
:101E40000EE0FA79164913465B001344DB000B449D
:101E500004331A68BB68D31AFB60FB68DB43FB6082
:101E6000FA790F4913465B001344DB000B44083337
:101E70001B68FA689A4202D262B600230BE0FA7934
:101E8000074913465B001344DB000B440433BA6874
:101E90001A6062B6012318461037BD4680BD00BFE8
:101EA000B001002080B400AF044B1B680133034A2B
:101EB000136000BFBD465DF8047B7047300300200F
:101EC00080B500AF00F002F800BF80BD80B586B0DD
:101ED00000AF01214FF40010FFF7BAFD1D4BBB60AE
:101EE0000023BB814BF6FF73FB8100233B824FF441
:101EF00080637B824FF48043BB8207F1080319465D
:101F00001548FFF7FBFA01211348FFF7B9FB012140
:101F10000220FFF77DFD4FF440733B6002233B71CD
:101F200002237B710123BB710023FB713B461946E1
:101F30000A48FFF7F3F9042208210848FFF794FA4A
:101F4000042209210548FFF78FFA00BF1837BD4664
:101F500080BD00BF801A060000540040000402400B
:101F600080B582B000AF72B640F225510E4801F044
:101F7000EDFC0346012B12D10C4B1B687B600A4819
:101F800001F0D4FC0346DBB2FB70FB1C19467868F9
:101F9000FEF7DCF940F22551034801F032FD62B64C
:101FA00000BF0837BD4680BD004400403403002018
:101FB00080B483B000AF786000BF0C37BD465DF8D9
:101FC000047B704780B582B000AF01210720FFF786
:101FD0001FFD01233B7103237B710023BB71002391
:101FE000FB714FF468733B603B4619460A48FFF7A4
:101FF00095F94FF488633B603B4619460748FFF765
:102000008DF980233B603B4619460548FFF786F96A
:1020100000BF0837BD4680BD0000024000040240FA
:102020000008024080B584B000AF78600B46FB70BA
:102030000823FB7397F90330002B05DA0122802176
:102040001448FFF7F9F904E0002280211148FFF756
:10205000F3F90120FFF7ACFF012220210D48FFF723
:10206000EBF90120FFF7A4FFFB7B013BFB73002290
:1020700020210848FFF7E0F90120FFF799FFFB78DE
:102080005B00FB70FB7B002BD4D100BF1037BD463B
:1020900080BD00BF0000024080B584B000AFF86092
:1020A0007B600B467B8113463B81B7F90A300A3BC4
:1020B0000B2B00F2DC8001A252F823F0ED20000887
:1020C0006F2200083F21000849210008592100081B
:1020D000692100087B2100089B210008C32100081A
:1020E000F92100081722000867220008FFF76AFF9D
:1020F000012280216048FFF79FF9012240215F48BB
:10210000FFF79AF9012280215D48FFF795F9012236
:102110004FF400715848FFF78FF9002220215648EC
:10212000FFF78AF901224FF480615448FFF784F9E0
:1021300001224FF480715048FFF77EF997E03B8908
:102140001846FFF735FF92E03B89DBB21A46802143
:102150004B48FFF771F98AE03B89DBB21A46402110
:102160004648FFF769F982E03B89DBB21A464FF433
:1021700000714148FFF760F979E03B89DBB219460D
:10218000F868FFF74FFF72E07B681B781946F86824
:10219000FFF748FF3B89013B3B813B89002BF3D193
:1021A00065E07B681B781946F868FFF73BFF7B68A2
:1021B00001331B781946F868FFF734FF3B89013B70
:1021C0003B813B89002BECD151E07B681B781946A1
:1021D000F868FFF727FF7B6801331B781946F8681A
:1021E000FFF720FF7B6802331B781946F868FFF77A
:1021F00019FF3B89013B3B813B89002BE5D136E050
:102200007B685A1C7A601B781946F868FFF70AFF4A
:102210003B89013B3B813B89002BF1D127E07B6867
:102220001B78002B10D07B681B78012B06D1002275
:102230004FF400711048FFF7FFF805E001224FF45A
:1022400000710D48FFF7F8F87B6801337B607B680D
:102250001B781946F868FFF7E5FE7B6801337B6061
:102260003B89013B3B813B89002BD8D100BF012337
:1022700018461037BD4680BD0000024000040240F1
:102280000008024080B582B000AF78600B46FB705A
:10229000074B084A0849786801F0A2F9FB7819460B
:1022A000786800F086FF00BF0837BD4680BD00BFDC
:1022B00099200008F1280008192A000880B584B088
:1022C00000AFF860084611461A4603467B810B466C
:1022D0003B811346FB8014E0B7F90630B7F90820BC
:1022E000B7F90A10F86801F0EDF9B7F918309BB2A8
:1022F000013B9BB23B83B7F908309BB201339BB2E1
:102300003B81B7F91830002BE6DC00BF1037BD4623
:1023100080BD80B584B002AF7860002300930023B5
:1023200000220021786801F0ECF9786800F03BFBAE
:102330007B68B3F902207B68B3F90430009313463D
:10234000002200217868FFF7B9FFFF230093FF23E5
:10235000FF220021786801F0D4F900BF0837BD469C
:1023600080BD80B483B000AF7860084611461A463D
:102370000346FB700B46BB7013463B807B68FA78C4
:102380005A70BB789AB2FB789BB2D31A9BB21AB23E
:102390007B689A803B88013B9BB21AB27B681A81AA
:1023A0007B6801225A807B68B3F904301A467B6847
:1023B000B3F9083092FBF3F31AB27B68DA807B68DA
:1023C000B3F90430002B0CDA7B68B3F904309BB20C
:1023D0005B429BB21AB27B689A807B684FF6FF72B1
:1023E0005A807B68B3F904307A68B2F9082093FB0D
:1023F000F2F102FB01F29B1A1AB27B685A817B68E8
:10240000B3F90830DA0F13445B101AB27B689A8173
:102410007B68FA781A7000BF0C37BD465DF8047B04
:10242000704780B483B000AF78607B681A787B68AF
:10243000B3F90630DBB21344DAB27B681A707B68FA
:10244000B3F90C309AB27B68B3F90A309BB21344EB
:102450009BB21AB27B689A817B68B3F90C207B68C7
:10246000B3F908309A4216DB7B681A787B68B3F9B7
:102470000230DBB21344DAB27B681A707B68B3F9BE
:102480000C309AB27B68B3F908309BB2D31A9BB276
:102490001AB27B689A8100BF0C37BD465DF8047B99
:1024A000704780B485B000AF78600B467B807B6856
:1024B000B3F90630DAB27B681A707B681A787B88C9
:1024C000DBB212FB03F3DAB27B681A707B68B3F9F4
:1024D0000A309AB27B8812FB03F39AB27B68B3F995
:1024E0000830D90F0B445B101BB29BB213449BB254
:1024F000FB817B68B3F90230002B0EDB7B681A7816
:10250000B7F90E307968B1F9081093FBF1F3DBB23B
:102510001344DAB27B681A700DE07B681A78B7F959
:102520000E307968B1F9081093FBF1F3DBB2D31ADE
:10253000DAB27B681A70B7F90E307A68B2F90820FF
:1025400093FBF2F102FB01F29B1A1AB27B689A81AB
:102550007B681A787B685B781344DAB27B681A7000
:1025600000BF1437BD465DF8047B704780B584B06A
:1025700000AFF8600B467A607B81B7F90A300C2B0C
:102580000AD0172B0FD1FB68DB68B7F90A107A68FD
:10259000F8689847034607E0FB687A68703310686C
:1025A000516803C300BF012318461037BD4680BDE4
:1025B00080B485B000AFF8600B467A607B81012360
:1025C00018461437BD465DF8047B704790B585B05A
:1025D00000AF7860786801F0CFFA0346002B53D043
:1025E0007B68B3F92E30012B08D0022B0BD0002BC7
:1025F0001BD12849786801F0EDFD28E0264978686C
:1026000001F0E8FD23E07B689B8CFB81FB89C3F133
:102610007F039BB21AB27B689A842049786801F0E4
:10262000D9FD7B68FA899A8411E07B68DB8CFB8199
:10263000FB89C3F17F039BB21AB27B68DA84184925
:10264000786801F0C7FD7B68FA89DA8400BF7B688F
:1026500093F828303B727B6893F829307B727B6853
:1026600093F82A30BB727B68DC697B68B3F92C3045
:102670009AB207F1080313217868A047012178680E
:1026800001F0F4FC012300E0002318461437BD4696
:1026900090BD00BF184E0008384E00085C4E000880
:1026A000804E000890B587B000AF78600023FB75BE
:1026B0001AE07B6803F14601FA7D1346DB009B1AA2
:1026C0005B00C818FB7D7A68134493F83A10FB7DD1
:1026D0007A68134493F83D207B68B3F92C30FFF7F8
:1026E00040FEFB7D0133FB75FB7D022BE1D9786851
:1026F00001F0C2FB0346002B71D07B68B3F92E308A
:10270000012B08D0022B0BD0002B1BD13649786847
:1027100001F060FD28E03549786801F05BFD23E0B9
:102720007B689B8C7B827B8AC3F17F039BB21AB24E
:102730007B689A842E49786801F04CFD7B687A8A20
:102740009A8411E07B68DB8C7B827B8AC3F17F03F8
:102750009BB21AB27B68DA842649786801F03AFDA8
:102760007B687A8ADA8400BF0023BB822AE07B6818
:1027700093F846303B737B6893F854307B737B68E7
:1027800093F86230BB737B68DC6907F10C030122AC
:1027900013217868A0477B6846331846FFF741FE4F
:1027A0007B6846330E331846FFF73BFE7B684633A3
:1027B0001C331846FFF735FEB7F914309BB20133CE
:1027C0009BB2BB827B68B3F92C30B7F914209A42D4
:1027D000CDDB0121786801F049FC012300E00023F2
:1027E00018461C37BD4690BD184E0008384E0008EC
:1027F0005C4E0008804E000890B587B000AFF860CE
:102800000B467A607B81B7F90A300A3B0B2B5FD805
:1028100001A252F823F000BF4928000863280008ED
:10282000D1280008D1280008D12800086F28000806
:10283000D1280008D1280008D1280008D128000894
:102840007F280008C7280008FB6802221A84FB685A
:1028500001225A8442226421F86801F056FB0346A3
:102860003EE02149F86801F0B5FC012338E07B68BF
:1028700080221A807B6880225A80012330E0F86829
:1028800001F060F90346002B1BD01849F86801F0ED
:10289000A1FCFB6893F828303B75FB6893F829305E
:1028A0007B75FB6893F82A30BB75FB68DC6907F120
:1028B000140301221321F868A0470121F86801F0F0
:1028C000D5FB01230CE0F868FFF780FE012307E049
:1028D000B7F90A307A681946F868FFF747FE0346E9
:1028E00018461C37BD4690BDA44E0008F84D0008A0
:1028F00080B584B000AFF8600B467A607B81B7F991
:102900000A30172B03D1F868FFF7CCFE00BF012374
:1029100018461037BD4680BD80B582B000AF7860E4
:102920007B681B7803F00103DBB2002B0AD07B68C5
:102930009B6800220B21786898477A6813786FF3B8
:102940000003137000BF0837BD4680BD80B584B05A
:1029500000AF78607868FFF7DFFF7B689B68002234
:102960000A21786898470346FB81B7F90E30002B9F
:1029700004D07A68137843F001031370B7F90E306E
:1029800018461037BD4680BD80B582B000AF786074
:1029900039607B689B683A680C217868984700BF6B
:1029A0000837BD4680BD80B584B000AF78607A68D6
:1029B00007F10C0302321068186000233B810023EA
:1029C0007B8107F1080319467868FFF7DDFF00BF38
:1029D0001037BD4680BD80B582B000AF78607B689F
:1029E0009B687A6802320F21786898477868FFF709
:1029F000DAFF00BF0837BD4680BD80B582B000AFAA
:102A000078607B689B687A682432152178689847DB
:102A100000BF0837BD4680BD80B584B000AFF86008
:102A20000B467A607B81B7F90A300B2B15D00F2B40
:102A30001CD00A2B22D1B7F90A307A681946F868F7
:102A4000FFF7DAFE0346002B01D100231EE01149F7
:102A5000F86801F0BFFB012318E0B7F90A307A6883
:102A60001946F868FFF7C8FE03460FE07B6880222E
:102A70001A807B6880225A80012307E0B7F90A3068
:102A80007A681946F868FFF7B7FE0346184610370C
:102A9000BD4680BDAC4E000880B483B000AF786006
:102AA0000B46FB70FB787A6813447B607B681B786D
:102AB00018460C37BD465DF8047B704780B485B07E
:102AC00000AF78600B46FB70FB787A6813447B603C
:102AD0007B681B78FB817B6801337B60FB891B0271
:102AE000FB817B681B789AB2FB891344FB81FB89CD
:102AF00018461437BD465DF8047B704780B582B038
:102B000000AF7860396000213868FFF7C5FF0346E1
:102B10001A467B681A7001213868FFF7BDFF03462B
:102B20001A467B685A7002213868FFF7B5FF0346E2
:102B30001A467B689A7003213868FFF7ADFF034699
:102B40001A467B68DA7004213868FFF7A5FF034650
:102B50001A467B681A7105213868FFF79DFF034606
:102B60001A467B685A7106213868FFF795FF0346BD
:102B70001A467B689A7107213868FFF78DFF034674
:102B80001A467B68DA7108213868FFF785FF03462B
:102B90001A467B681A7209213868FFF77DFF0346E1
:102BA0005AB27B685A720A213868FFF775FF0346EC
:102BB0005AB27B689A720B213868FFF76DFF0346A3
:102BC0005AB27B68DA720C213868FFF765FF03465A
:102BD0005AB27B681A730D213868FFF75DFF034610
:102BE0005AB27B685A730E213868FFF755FF0346C7
:102BF0005AB27B689A730F213868FFF74DFF03467E
:102C00005AB27B68DA7310213868FFF745FF034634
:102C10005AB27B681A7411213868FFF74FFF0346D8
:102C20001A467B685A8213213868FFF747FF03462C
:102C30001A467B689A8200BF0837BD4680BD80B4C3
:102C400085B000AF78600B46FB707B681B7B7B73A5
:102C50007B681B681B78FB73FA7B7B7B42FA03F370
:102C6000FB737B7BBB73BA7BFB781344BB73BB7B6F
:102C7000072B1AD908233B733A7B7B7BD31A3B7310
:102C80007B681B685A1C7B681A607B681B681B7812
:102C90001A463B7B02FA03F35AB297F90F301343FB
:102CA0005BB2FB73BB7B083BBB73FB784FF0FF321F
:102CB00002FA03F3DBB2DB43DAB2FB7B1340FB73B4
:102CC0007B68BA7B1A73FB7B18461437BD465DF8E8
:102CD000047B704780B584B000AF78600B46FB7012
:102CE000FB7819467868FFF7AAFF0346FB730123B8
:102CF000BB73FB78013BFB7097F90E20FB7802FA5F
:102D000003F3BB73FA7BBB7BD31ADBB2FB7397F97C
:102D10000F3018461037BD4680BD90B482B000AF6A
:102D20000446084611461A462346FB8003467B713B
:102D30000B463B711346FB70FB78012B0BD0022B2B
:102D400011D0002B17D197F904309AB2FB881344A5
:102D50009BB2FB8017E097F905309AB2FB881344C9
:102D60009BB2FB800FE0FA8897F904309BB2D31A2C
:102D70009BB2FB8007E0FA8897F905309BB2D31A23
:102D80009BB2FB8000BFB7F9063018460837BD4636
:102D900090BC704790B482B000AF0446084611461C
:102DA0001A462346FB8003467B710B463B71134654
:102DB000FB70FB78012B0BD0022B11D0002B17D10D
:102DC00097F905309AB2FB8813449BB2FB8017E059
:102DD000FA8897F904309BB2D31A9BB2FB800FE0BC
:102DE000FA8897F905309BB2D31A9BB2FB8007E0B3
:102DF00097F904309AB2FB8813449BB2FB8000BF62
:102E0000B7F9063018460837BD4690BC704790B5F4
:102E100089B002AF78600B46FB701346BB707B68CD
:102E200080333B61FB78FB753B6993F908307B7518
:102E30003B6993F909303B753B6993F90A30FB73A1
:102E4000FA7B7B7DD31AFB73FB7BBB75FA7DFB7B27
:102E50009A4201D2FB7DBB753B699B88BB813B6974
:102E6000DB887B8197F9151097F914203B699B7BD0
:102E7000B7F90C00FFF78EFF0346BB8197F91510D9
:102E800097F914203B699B7BB7F90A00FFF745FFD0
:102E900003467B81BB78002B11D0BB7D1CB23B6904
:102EA0009B7B1BB2B7F90A00B7F90C100022019204
:102EB000009323460246786800F0C0FB14E03B69AB
:102EC0005B7B002B10D1BB7D1CB23B699B7B1BB293
:102ED000B7F90A00B7F90C100122019200932346BA
:102EE0000246786800F0AAFBFA7DFB7B9A4209D380
:102EF000FA7DFB7BD31AFB7500237B753B7D013389
:102F00003B7599E700BF7A7DFB7D13447B7597F98C
:102F100015203B691A7297F914203B695A7200BF59
:102F20001C37BD4690BD80B584B000AF7860396075
:102F30007B688033FB60FB683A681A60FB6800229C
:102F40001A73FB681B685A1CFB681A60FB681B68D5
:102F50005A1CFB681A607B6893F894301946F8682D
:102F6000FFF76DFE03465AB2FB689A727B6893F8CE
:102F700095301946F868FFF762FE03465AB2FB68BF
:102F8000DA7200BF1037BD4680BD80B584B000AF97
:102F90007860396039687868FFF7C5FF7B6893F817
:102FA0008B30FB737B6803F180027B6893F896306B
:102FB00019461046FFF78EFE0346BB737B6803F18C
:102FC00080027B6893F8973019461046FFF782FE1F
:102FD00003467B737B6803F180027B6893F898302B
:102FE00019461046FFF776FE03463B737B6893F95C
:102FF0008A30002B69DD7B68B3F98400FA7B7B7B28
:103000001344DBB25B42DBB25AB27B6893F88E307A
:1030100097F90E10FFF7BEFE03461A467B68A3F829
:1030200084207B68B3F98600FA7B7B7B1344DBB298
:103030005B42DBB25AB27B6893F88E3097F90E1080
:10304000FFF76BFE03461A467B68A3F886207B6871
:10305000002283F888207B68002283F889207B681F
:1030600003F180027B6893F8923019461046FFF70F
:10307000E6FD0346FB727B6803F180027B6893F8F0
:10308000933019461046FFF7DAFD0346BB72FB7A10
:10309000002219467868FFF7BAFEBB7A012219466A
:1030A0007868FFF7B4FE7B68803301211846FFF78C
:1030B000C6FD0346002BEAD17B6893F9893097F966
:1030C0000F209A4200DDCAE700BF97F90C3018467E
:1030D0001037BD4680BD80B485B000AF78600B4628
:1030E000FB707B689B6FFB60FB681533FB60FB78B4
:1030F000602B07D97B68B3F8A4301A46FB681344E9
:10310000FB6009E0FB78402B06D97B68B3F8A2305E
:103110001A46FB681344FB60FB6801331B78002BE5
:103120000ED0FB681B78FA789A4201D1FB6809E05F
:10313000FB6801331B781A46FB681344FB60EBE71E
:1031400000BF002318461437BD465DF8047B704766
:1031500080B586B000AFF860084611461A460346AF
:103160007B810B463B811346FB710023FB82FB688E
:103170007A89A3F88420FB683A89A3F88620FB6843
:10318000FA7983F88E2097F820301946F868FFF70F
:10319000A2FF38613B69002B05D03969F868FFF759
:1031A000F4FE0346FB82B7F9163018461837BD46C1
:1031B00080BD80B483B000AF78600B46FB707B6845
:1031C000FA7883F88D2000BF0C37BD465DF8047B8C
:1031D0007047000080B586B002AFF860084611461F
:1031E0001A4603467B810B463B811346FB71FB79F4
:1031F000032B37D801A252F823F000BF0D3200088C
:1032000023320008393200084F320008FB68DB6FB8
:10321000F868984703469AB23B8913449BB23B81B6
:1032200020E0FB68DB6FF868984703467A899BB219
:10323000D31A9BB27B8115E0FB68DB6FF868984777
:1032400003463A899BB2D31A9BB23B810AE0FB68E2
:10325000DB6FF868984703469AB27B8913449BB2A8
:103260007B8100BFF879B7F90820B7F90A103B7ED7
:1032700000930346F868FFF76BFF034618461037C4
:10328000BD4680BD80B586B002AF78600023FB816B
:103290007B68BB60454B1B78002B02D0012B1ED0F6
:1032A0007BE04348FDF707F80346002B07D0414970
:1032B0003F48FDF79BF83D4B01221A7071E03E4BF1
:1032C0001B78FF2B07D03C4B1B781846FEF7B0FC51
:1032D000394BFF221A70354B00221A7061E0354BD2
:1032E0009B681B78002B54D0324BB3F90010314B44
:1032F000B3F902202F4B18792E4B9B681B78009353
:103300000346B868FFF766FF0346FB81294B1B792C
:10331000032B37D801A252F823F000BF2D33000849
:1033200043330008593300086F330008214BB3F9C9
:1033300000309AB2FB8913449BB21AB21D4B1A801B
:1033400021E01C4BB3F902309AB2FB8913449BB2C3
:103350001AB2184B5A8016E0164BB3F900309AB2E5
:10336000FB89D31A9BB21AB2124B1A800BE0114B95
:10337000B3F902309AB2FB89D31A9BB21AB20D4B41
:103380005A8000E000BF0B4B9B680133094A9360F1
:1033900007E0064B00221A7003E0044B00221A706B
:1033A00000BF00BF1037BD4680BD00BF4C130020DA
:1033B0003C030020981400202400002080B58AB02F
:1033C00002AFF860084611461A4603467B810B4659
:1033D0003B811346FB710023FB837B893B823B8946
:1033E0007B82FB793B75BB6ABB6107F11003194611
:1033F0000C48FCF7ABFF0C4B1B78FF2B0BD1FB6889
:1034000000930A4BFF221E210948FEF7AFFB03463B
:103410001A46054B1A70B7F91E3018462037BD46BC
:1034200080BD00BF3C03002024000020853200083E
:10343000E84D000880B483B000AF78607B689B6F74
:10344000002B5DD07B6893F99D207B6883F8AC20CE
:103450007B6893F99E207B6883F8AD207B6893F8A6
:10346000AB30002B4DD07B6893F8AB30012B1CD1D7
:103470007B6893F9AC207B6893F99F309A4205DA18
:103480007B6893F99F207B6883F8AC207B6893F975
:10349000AD207B6893F9A0309A4232DD7B6893F9C6
:1034A000A0207B6883F8AD202BE07B6893F9AC30DB
:1034B0001A467B6893F99A3019467B6893F99C30D9
:1034C0000B449A420DDA7B6893F99A30DAB27B6842
:1034D00093F99C30DBB21344DBB25AB27B6883F8B9
:1034E000AC207B6893F9AD207B6893F99C309A42BD
:1034F00007DD7B6893F99C207B6883F8AD2000E0B2
:1035000000BF0C37BD465DF8047B704780B483B0C4
:1035100000AF7860002318460C37BD465DF8047B89
:103520007047000080B483B000AF78607B68044AC5
:10353000DA6700BF0C37BD465DF8047B704700BFFB
:103540000D35000880B582B000AF786039607B68C7
:103550009B6F3A689A4212D07B683A689A677B6898
:10356000903339681846FFF7C9FA7868FFF762FFA9
:103570004FF480530C2204490448FCF781FE00BF3D
:103580000837BD4680BD00BF3C0300204C0300202F
:1035900080B483B000AF78607A6813786FF300036B
:1035A00013707B6800221A617B6801225A867B684F
:1035B00000229A677B68012283F88D207B680022B5
:1035C00083F8AE207B68002283F8AF207B6800225E
:1035D00083F8B02000BF0C37BD465DF8047B704710
:1035E00080B586B000AFF860B9607A603B60F8687B
:1035F000FFF7CEFF7B68002B03D1FB680E4ADA6031
:1036000002E0FB687A68DA60FB68BA689A60FB6877
:103610003A68DA61F868FFF785FFF868FFF796F90E
:103620000346FB82F868FFF7D6F9B7F9163018465B
:103630001837BD4680BD00BFB125000880B584B0F5
:1036400000AFF860084611461A4603467B810B46D8
:103650003B811346FB80B7F91C20F96813465B00D9
:1036600013440B443A331A78FB6883F82820B7F9DF
:103670001C20F96813465B0013440B443B331A7853
:10368000FB6883F82920B7F91C20F96813465B0012
:1036900013440B443C331A78FB6883F82A20FB68F8
:1036A0007A899A84FB683A89DA84FB68FA889A8571
:1036B000FB683A8BDA85F868FFF79FF900BF10378F
:1036C000BD4680BD80B586B002AFF86008461146A1
:1036D0001A4603467B810B463B811346FB80B7F9B4
:1036E0000600B7F90820B7F90A1000230193002358
:1036F00000930346F868FFF7A1FF00BF1037BD46EF
:1037000080BD80B483B000AF7860084611461A4689
:103710000346FB700B46BB7013467B70FA787968E2
:1037200013465B0013440B443A33BA781A70FA78A4
:10373000796813465B0013440B443B337A781A7064
:10374000FA78796813465B0013440B443C333A7CA7
:103750001A7000BF0C37BD465DF8047B704780B51A
:1037600082B000AF78607B681B69002B06D07B6855
:103770001A697B689A607B6800221A617868FFF793
:103780002AF97868FFF70FF900BF0837BD4680BDFA
:1037900080B485B000AF786039607B68DB8AFB81DC
:1037A000FA893B68B3F902309BB2D31A9BB2FB8112
:1037B000B7F90E309BB2013B9BB2FB813B68FA89A3
:1037C0005A807B689B8ABB81BA893B68B3F9003019
:1037D0009BB2D31A9BB2BB81B7F90C309BB2013BB1
:1037E0009BB2BB813B68BA891A8000BF1437BD46C3
:1037F0005DF8047B7047000080B584B000AFF860CE
:103800000B467A607B81B7F90A300C3B0B2B66D8EC
:1038100001A252F823F000BF67380008DF38000823
:10382000DF38000849380008DF380008DF380008B2
:10383000DF380008DF380008AF380008AF3800086C
:10384000DF380008AF380008FB681B69FA681432DB
:10385000B7F90A10F86898477A68FB681433186853
:103860001060012343E07B68B3F902309AB27B68B1
:10387000B3F906309BB213449BB2013B9BB21AB220
:103880007B685A807B68B3F900309AB27B68B3F9E1
:1038900004309BB213449BB2013B9BB21AB27B68CB
:1038A0001A807B681946F868FFF772FF17E0FB681B
:1038B000B3F92E309BB202339BB21AB2FB68DA85A1
:1038C000FB68B3F92E3003F003031AB2FB68DA8504
:1038D000FB6824331946F868FFF75AFF00BFFB68FE
:1038E0001B69B7F90A107A68F868984703461846C2
:1038F0001037BD4680BD00BF80B582B000AF786094
:103900007868FFF72CFF7B689A687B681A617B6890
:10391000054A9A607868FFF75EF87868FFF743F821
:1039200000BF0837BD4680BDF937000880B483B0BA
:1039300000AF78607B689B889BB2C3F308039BB29F
:1039400018460C37BD465DF8047B704780B487B0DD
:1039500000AF78600B467B800023FB6000237B6117
:103960000023BB600023FB747B88DBB25B09DBB206
:10397000BB607B8803F01F037B6101227B6902FA35
:1039800003F37B61BB68012B07D17B689B899BB2EA
:103990001A467B6913407B6111E0BB68022B07D19B
:1039A0007B681B8A9BB21A467B6913407B6106E0E9
:1039B0007B689B8A9BB21A467B6913407B617B883C
:1039C0001B0A9BB2FB600122FB6802FA03F3FB6057
:1039D0007B681B889BB21A46FB681340FB607B69BF
:1039E000002B05D0FB68002B02D00123FB7401E003
:1039F0000023FB74FB7C18461C37BD465DF8047B36
:103A0000704780B485B000AF78600B467B800023A0
:103A1000FB810023BB817B881B0AFB81FB89012280
:103A200002FA03F3BB81BB89DB439AB27B681A803D
:103A300000BF1437BD465DF8047B704780B485B085
:103A400000AF78607B689B8CFB81FA897B68B3F957
:103A500070309BB2D31A9BB2FB81B7F90E30002BAA
:103A600001DA002309E07B68B3F97430B7F90E205E
:103A70009A4201DB002300E0012318461437BD46BB
:103A80005DF8047B704780B485B000AF78607B68D8
:103A9000DB8CFB81FA897B68B3F972309BB2D31A55
:103AA0009BB2FB81B7F90E30002B01DA002309E04D
:103AB0007B68B3F97630B7F90E209A4201DB002318
:103AC00000E0012318461437BD465DF8047B7047BB
:103AD00080B487B000AFF860B96011461A460B4653
:103AE000FB801346BB80FB681B88FB82BB681B887E
:103AF000BB82B7F91620B7F904309A4201DB0023E4
:103B00001AE0B7F91420B7F906309A4201DC002315
:103B100012E0B7F91620B7F906309A4202DAFB68CC
:103B2000FA881A80B7F91420B7F904309A4202DDF6
:103B3000BB68BA881A80012318461C37BD465DF859
:103B4000047B704780B582B000AF78607868FFF77B
:103B500075FF0346002B01D1002308E07868FFF7CA
:103B600092FF0346002B01D1002300E001231846F9
:103B70000837BD4680BD000090B585B000AF7860C5
:103B80007B6800221A867B68B3F92E30032B00F283
:103B90006D8101A252F823F0A93B00084F3C0008B8
:103BA000F53C0008B13D00087868FFF76CFF03465C
:103BB000002B01D100235AE17B68B3F92430FB814B
:103BC000B7F90E30BB817B68B3F92C309AB2B7F9E4
:103BD0000C309BB213449BB21BB2BB817B68B3F920
:103BE00070407B68B3F970309AB27B68B3F9743077
:103BF0009BB213449BB21BB207F10C0107F10E00FC
:103C00002246FFF765FF0346002B01D100232EE17A
:103C1000B7F90E309AB27B68B3F924309BB2D31A4D
:103C20009BB21AB27B681A86B7F90E207B689A8419
:103C3000B7F90C309AB2B7F90E309BB2D31A9BB2D7
:103C40001BB2BB81B7F90C207B689A850EE17868BE
:103C5000FFF7F4FE0346002B01D1002307E17B6848
:103C6000B3F92630FB81B7F90E30BB817B68B3F91D
:103C70002C309AB2B7F90C309BB213449BB21BB2F2
:103C8000BB817B68B3F972407B68B3F972309AB23A
:103C90007B68B3F976309BB213449BB21BB207F139
:103CA0000C0107F10E002246FFF712FF0346002B1E
:103CB00001D10023DBE0B7F90E309AB27B68B3F98B
:103CC00026309BB2D31A9BB21AB27B681A86B7F918
:103CD0000E207B68DA84B7F90C309AB2B7F90E304F
:103CE0009BB2D31A9BB21BB2BB81B7F90C207B6885
:103CF0009A85BBE07868FFF7C6FE0346002B01D12A
:103D00000023B4E07B68B3F92430BB81B7F90C30F1
:103D10009BB201339BB21BB2BB81B7F90C30FB8164
:103D2000B7F90E309AB27B68B3F92C309BB2D31A34
:103D30009BB21BB2FB817B68B3F970407B68B3F91F
:103D400070309AB27B68B3F974309BB213449BB263
:103D50001BB207F10C0107F10E002246FFF7B8FE77
:103D60000346002B01D1002381E0B7F90C309AB251
:103D7000B7F90E309BB2D31A9BB21AB27B689A8500
:103D8000B7F90C309BB2013B9BB21BB2BB817B6885
:103D9000B3F924309AB2B7F90C309BB2D31A9BB264
:103DA0001AB27B681A86B7F90C207B689A845DE0AA
:103DB0007868FFF743FE0346002B01D1002356E04D
:103DC0007B68B3F92630BB81B7F90C309BB2013365
:103DD0009BB21BB2BB81B7F90C30FB81B7F90E3037
:103DE0009AB27B68B3F92C309BB2D31A9BB21BB248
:103DF000FB817B68B3F972407B68B3F972309AB289
:103E00007B68B3F976309BB213449BB21BB207F1C7
:103E10000C0107F10E002246FFF75AFE0346002B65
:103E200001D1002323E0B7F90C309AB2B7F90E3074
:103E30009BB2D31A9BB21AB27B689A85B7F90C3041
:103E40009BB2013B9BB21BB2BB817B68B3F92630AE
:103E50009AB2B7F90C309BB2D31A9BB21AB27B68F4
:103E60001A86B7F90C207B68DA8400BF0123184654
:103E70001437BD4690BD00BF80B584B000AF7860F8
:103E80007868FFF779FE0346002B01D1002319E083
:103E90000023FB7312E07B6803F14601FA7B1346B3
:103EA000DB009B1A5B00CA187B68B3F930301946F7
:103EB0001046FEF7F6FAFB7B0133FB73FB7B022B0C
:103EC000E9D9012318461037BD4680BD90B583B0AF
:103ED00000AF78607B6893F8AF3003F00803002BE5
:103EE00006D07B68DC69002300220B217868A0479C
:103EF0007B6893F8AF3023F00803DAB27B6883F86D
:103F0000AF2000BF0C37BD4690BD90B585B000AF67
:103F100078600B467B8013463B807B883B813B88E7
:103F20007B817868FFF7D2FF7B68002283F8AE20A0
:103F30007B68DC6907F1080300220A217868A04742
:103F40000346FB81B7F90E30002B08D07B6893F84D
:103F5000AF3043F00803DAB27B6883F8AF20B7F9DB
:103F60000E3018461437BD4690BD90B583B000AFF3
:103F70007860084611461A460346FB700B46BB7034
:103F800013467B70FB78002B31D17B6893F8AE2011
:103F9000BB781340DBB2002B08D07B6893F8AF20CE
:103FA000BB781340DBB2BA789A424BD17B68DC69AC
:103FB0007B7819B2FB789AB200237868A0477B68B7
:103FC00093F8AF305AB297F90230DB435BB213403B
:103FD0005BB2DAB27B6883F8AF207B6893F8AE20DF
:103FE000BB781343DAB27B6883F8AE202AE07B68A3
:103FF00093F8AE20BB781340DBB2002B07D07B6870
:1040000093F8AF20BB781340DBB2002B1AD17B684A
:10401000DC697B7819B2FB789AB200237868A047F4
:104020007B6893F8AF20BB781343DAB27B6883F8E0
:10403000AF207B6893F8AE20BB781343DAB27B687D
:1040400083F8AE2000BF0C37BD4690BD80B582B06E
:1040500000AF78600B46FB70F9780D230422786876
:10406000FFF783FF00BF0837BD4680BD80B582B033
:1040700000AF78600B46FB70F9780E230222786857
:10408000FFF773FF00BF0837BD4680BD80B582B023
:1040900000AF78600B46FB70F9780F230122786837
:1040A000FFF763FF00BF0837BD4680BD90B583B002
:1040B00000AF78600B467B807B68DC697A880023E0
:1040C0000C217868A04700BF0C37BD4690BD80B575
:1040D00082B000AF78600B467B8007E04FF47A71C6
:1040E0007868FFF7E3FF7B88013B7B807B88002BB0
:1040F000F4D100BF0837BD4680BD90B583B000AF96
:1041000078600B46FB707B68DC69FB789AB2002311
:1041100010217868A04700BF0C37BD4690BD90B510
:1041200087B000AFF8600B467A607B8110E07B6857
:104130001B78FB75FB68DC69FB7D9AB200231021BC
:10414000F868A0477B6801337B607B89013B7B81FA
:104150007B89002BEBD100BF1C37BD4690BD80B5DD
:1041600084B000AFF860B96011461A460B46FB7187
:104170001346BB71FB6893F8B0305B08DBB203F009
:104180000103DBB21946F868FFF780FFFB799BB2A9
:10419000BA681946F868FFF7C2FFBB79002B14D044
:1041A000FB79BA681344BB60FB6893F8B03003F046
:1041B0000103DBB21946F868FFF768FFBB799BB2D1
:1041C000BA681946F868FFF7AAFF00BF1037BD4666
:1041D00080BD000080B584B000AF786039603B6876
:1041E0001B78FB73FB7B1B09BB73FB7B03F00F038B
:1041F0007B73BB7B0F2B00F2248101A252F823F0CA
:10420000434400084142000841420008414200087E
:1042100043440008434400086142000893420008F8
:10422000D7420008034300082F4300088F430008CB
:10423000434400084344000843440008EF43000897
:104240003B68591C7B7BBA7B7868FFF788FFBB7B98
:104250005A1C7B7B13441A463B6813443B60EFE0D7
:104260007B6893F8B03003F00103DBB2194678683D
:10427000FFF70CFF7B7B99B23B6801331A467868E5
:10428000FFF74DFF7B7B01331A463B6813443B60CD
:10429000D6E07B6893F8B0305B08DBB203F0010333
:1042A000002B0CBF01230023DBB219467868FFF70F
:1042B000EDFE7B7B002B07D07B7B99B23B68013303
:1042C0001A467868FFF72BFF7B7B01331A463B6861
:1042D00013443B60B4E03B6801333B603B681B78B0
:1042E000FB737B7B9BB21B029AB2FB7B9BB213449A
:1042F0009BB219467868FFF7EAFE3B6801333B60E2
:104300009EE03B6801333B603B681B78FB737B7B23
:104310009BB21B029AB2FB7B9BB213449BB2194621
:104320007868FFF7C3FE3B6801333B6088E03B6879
:1043300001333B603B681B78FB733B6801333B6098
:104340003B681B783B733B6801333B607B6893F8A9
:10435000B03003F00103DBB219467868FFF796FE30
:104360007B68B3F924301A467B68B3F920301A44CD
:104370007B7B42FA03F3DAB2FB7B1340DAB23B7B7E
:104380001343DBB219467868FFF7B7FE58E03B6885
:1043900001333B603B681B78FB733B6801333B6038
:1043A0003B681B783B733B6801333B607B6893F849
:1043B000B03003F00103DBB219467868FFF766FE00
:1043C0007B68B3F926301A467B68B3F922301A4469
:1043D0007B7B42FA03F3DAB2FB7B1340DAB23B7B1E
:1043E0001343DBB219467868FFF787FE28E07B7B32
:1043F0009B08BB737B7B03F003037B73BB7B012BAD
:104400000CD0032B13D0002B16D17B7B03F00103C0
:10441000DBB219467868FFF719FE0DE07B7B03F0ED
:104420000103DBB219467868FFF720FE04E07B68E1
:104430007A7B83F8B02000BF3B6801333B6000BF4C
:10444000CDE600BF1037BD4680BD00BF0EB400B53D
:104450009CB01DAB029006906FF000410948079197
:104460000491094953F8042B05910068019302A9AE
:1044700000F092F9029B00221A701CB05DF804EB68
:1044800003B07047740000200802FFFF0244034697
:10449000934200D1704703F8011BF9E7014B1868FC
:1044A000704700BF7400002070B50D4D0D4C641BAB
:1044B000A4100026A64209D10B4D0C4C00F06AFC5A
:1044C000641BA4100026A64205D170BD55F8043B1C
:1044D00098470136EEE755F8043B98470136F2E776
:1044E000B4560008B4560008B4560008B856000880
:1044F0007047704737B5002944D051F8043C01900B
:10450000002BA1F10404B8BFE41800F0DFF81E4A44
:104510000198136833B96360146003B0BDE830409C
:1045200000F0DAB8A34208D9256861198B4201BFAF
:1045300019685B6849192160EDE71A465B680BB1A1
:10454000A342FAD911685518A5420BD12468214419
:104550005418A3421160E0D11C685B6853600C449E
:104560001460DAE702D90C230360D6E725686119E5
:104570008B4204BF19685B68636004BF49192160FE
:104580005460CAE703B030BD9014002070B50E4EE1
:104590000C463168054611B900F0A6FB3060214693
:1045A000284600F0A1FB431C0AD0C41C24F00304DD
:1045B000A04207D0211A284600F096FB013001D115
:1045C0004FF0FF34204670BD941400202DE9F843CD
:1045D000CD1C25F0030508350C2D38BF0C25002D0A
:1045E000074601DBA94205D90C233B600026304673
:1045F000BDE8F883DFF8D08000F068F8D8F8003024
:104600001C465CBB29463846FFF7C0FF431C0446E6
:1046100055D1D8F800402646002E45D1002C48D070
:1046200023683146384604EB030900F05DFB814501
:104630003FD121686D1A29463846FFF7A7FF0130A0
:1046400037D023682B442360D8F80030002B38D0B3
:104650005A68A2422BD100225A600FE02268521BF6
:104660001FD40B2A17D96119A342256018BF5960BE
:10467000636808BFC8F8001062514B60384604F107
:104680000B0600F029F826F00706231DF21AAED01B
:104690009B1BA350ABE7A3426268DDD1C8F80020A2
:1046A000ECE723466468ACE734467668B4E7134623
:1046B000CCE70C233B60384600F00EF897E7256006
:1046C000DCE75B60FFDE00BF901400200148FFF7CD
:1046D0000FBF00BF8C1400200148FFF70ABF00BFC6
:1046E0008C1400202DE9F0478E681F46BE420B68EF
:1046F00082460C4690462CD88A8912F4906F26D0B8
:104700006569096905EB4505A3EB010905EBD5755D
:104710007B1C4B446D109D4238BF1D46530527D569
:104720002946FFF753FF064660B321694A4600F069
:10473000EBFAA38923F4906343F08003A3812661FD
:1047400065614E44A5EB09052660A5603E46BE4264
:1047500000D93E4620683246414600F0ABFAA368D5
:104760009B1BA3602368334423600020BDE8F087CF
:104770002A4600F0D7FA06460028E0D121695046C3
:10478000FFF7B8FE0C23CAF80030A38943F04003BA
:10479000A3814FF0FF30E9E72DE9F04F98468B8970
:1047A0001B069DB007460D4614460ED50B6963B92E
:1047B0004021FFF70BFF2860286120B90C233B60E4
:1047C0004FF0FF30D0E040236B610023099320239A
:1047D0008DF82930CDF80C803023DFF8A4818DF8D6
:1047E0002A304FF0010923469A4613F8012B0AB1EB
:1047F000252AF9D1BAEB040B0BD05B462246294699
:104800003846FFF76FFF013000F0A980099A5A443B
:1048100009929AF80030002B00F0A18000234FF09D
:10482000FF32CDE905230AF1010A049307938DF8BD
:1048300053301A935446052214F8011B5048FBF7D5
:10484000CFFC049AD8B9D00644BF20238DF853304A
:10485000110744BF2B238DF853309AF800302A2BD0
:1048600015D0079A544600204FF00A0C214611F843
:10487000013B303B092B4DD9B0B1079214E0A0EBBE
:10488000080309FA03F313430493A246D2E7039BF8
:10489000191D1B680391002BBBBF5B4242F0020253
:1048A00007930793B8BF049223782E2B0CD163781B
:1048B0002A2B34D1039B1A1D1B680392002BB8BF0F
:1048C0004FF0FF3302340593DFF8C4A021780322B0
:1048D0005046FBF785FC38B1049BA0EB0A00402250
:1048E000824013430134049314F8011B25488DF8CA
:1048F00028100622FBF774FC002838D0224B1BBB83
:10490000039B073323F0070308330393099B3344C6
:10491000099368E70CFB02320C460120A6E700234E
:104920000134059319464FF00A0C204610F8012B6C
:10493000303A092A03D9002BC6D00591C4E70CFBF5
:10494000012104460123F0E703AB00932A460F4BF5
:1049500004A93846AFF30080421C0646D6D1AB8985
:104960005B063FF52DAF09981DB0BDE8F08F03AB96
:1049700000932A46054B04A9384600F079F8EBE786
:10498000805600088A56000800000000E54600082E
:10499000865600082DE9F047164699468A680B6945
:1049A000DDF820809342B8BF1346336091F843206E
:1049B00007460C460AB1013333602368990642BFAB
:1049C000336802333360256815F0060506D104F11B
:1049D000190AE36832689B1AAB4226DC94F843203C
:1049E000131E226818BF012392062BD404F1430240
:1049F00049463846C04701301ED02368226903F07B
:104A00000603042B02BFE5683368ED1AA3680CBFE8
:104A100025EAE57500259342C4BF9B1AED180026D0
:104A20001A34B5421AD1002008E001235246494603
:104A30003846C047013003D14FF0FF30BDE8F08762
:104A40000135C6E7E1185A1C302081F843002244A2
:104A500094F8451082F843100233C7E70123224639
:104A600049463846C0470130E6D00136D9E7000054
:104A70002DE9FF470F7E0C9D782F914680460C460E
:104A80009A4601F1430207D8622F0AD8002F00F09E
:104A9000D480582F00F0C08004F1420584F84270A1
:104AA0003AE0A7F16303152BF6D801A151F823F0E2
:104AB000094B00081D4B0008994A0008994A000854
:104AC000994A0008994A00081D4B0008994A0008B5
:104AD000994A0008994A0008994A0008214C0008A0
:104AE000494B0008DB4B0008994A0008994A000826
:104AF000434C0008994A0008494B0008994A0008AD
:104B0000994A0008E34B00082B681A1D1B682A60AD
:104B100004F1420584F8423001239FE020682B68AD
:104B2000070603F10401296001D51E6803E046066B
:104B3000FBD5B3F90060002E03DA2D23764284F80A
:104B400043305A480A2312E02B682068191D296057
:104B5000050601D51E6802E04106FBD51E885348B4
:104B60006F2F0CBF08230A23002184F843106568C7
:104B7000A560002DA2BF216821F0040121600EB9BB
:104B8000002D4BD01546B6FBF3F103FB1167C75D53
:104B900005F8017D3746BB420E46F4D9082B0BD1F0
:104BA0002368DE0708D5236961689942DEBF302398
:104BB00005F8013C05F1FF35521B2261CDF800A03C
:104BC0004B4603AA21464046FFF7E4FE01304AD196
:104BD0004FF0FF3004B0BDE8F087236843F02003B6
:104BE00023603348782784F84570236829681F06B6
:104BF00051F8046B02D45F0648BFB6B2DF0748BF66
:104C000043F02003296048BF23601EB9236823F0C6
:104C1000200323601023A7E72448E4E71546BDE7F7
:104C20002B6826686169181D286035061B6801D548
:104C3000196002E07006FBD5198000232361154638
:104C4000BCE72B681A1D2A601D686268002128468F
:104C5000FBF7C6FA08B1401B60606368236100235C
:104C600084F84330AAE723692A4649464046D0479C
:104C70000130ADD023689B0713D4E068039B9842B2
:104C8000B8BF1846A6E70123324649464046D047FA
:104C900001309DD00135E36803995B1AAB42F2DC29
:104CA000EBE7002504F11906F5E700BF915600086F
:104CB000A2560008884210B501EB020402D98442D2
:104CC000234607D8431EA14208D011F8012B03F850
:104CD000012FF8E7024401468A4200D110BD13F8C3
:104CE000014D02F8014DF7E738B5064D00230446A3
:104CF00008462B60FCF7B0F9431C02D12B6803B1C6
:104D0000236038BD881400200A44914200F1FF332B
:104D100000D1704710B511F8014B03F8014F9142D3
:104D2000F9D110BD2DE9F041804614460E4621B957
:104D3000BDE8F0411146FFF749BC2AB9FFF7DAFB9D
:104D400025462846BDE8F08100F01BF8844207465E
:104D500002D8B4EB500F12D821464046FFF736FC7C
:104D600005460028EDD0BC422246314628BF3A46CF
:104D7000FFF7CAFF31464046FFF7BCFBE1E7354687
:104D8000DFE751F8043C181F002BBCBF0B58C018BC
:104D900070470000F8B500BFF8BC08BC9E467047DD
:0C4DA000F8B500BFF8BC08BC9E46704788
:104DAC00000000006E686F6D320000002054656DCD
:104DBC0070203D202564206F432020002048756D15
:104DCC0069203D202533642025252020200000006B
:104DDC005363616E5F73656E736F72007563675FAB
:104DEC0044726177537472696E670000F411360077
:104DFC00102AA00000A0FF0062007F102BB0000062
:104E0C00B0FF0062009F102C70000000F4113600FF
:104E1C00102AA00000A0FF00620081102BB000003F
:104E2C00B0FF006200A0102C70000000F4113600DE
:104E3C00102AA00000A0FF00A00000A0FF00102B73
:104E4C00B00000B0FF0062009F102C70000000004A
:104E5C00F4113640113640102AA00000A0FF006269
:104E6C00007F102BB80100B0FF0062009F102C7067
:104E7C0000000000F4113680113680102AA00000CA
:104E8C00A0FF00A00000A0FF00102BB00000B0FF9E
:104E9C000062009F102C7000F410101028F5000018
:104EAC00FDF1F58005F08005F18032F41011800AD7
:104EBC0010131020113A061029113600142A000084
:104ECC00007F142B0000009F102CF5005F010402E2
:104EDC0005050103061010FFFD0CFD0CFE026C0510
:104EEC00752007040EF91C01210D054E691A6F423D
:104EFC002D357A0800220A068E79917ECF1D00236B
:104F0C001E094ECA91542415494532834126928A72
:104F1C006406834C2415494552913C0500241E0916
:104F2C004E4AC1DC209488B490544806B1816C1070
:104F3C005144228A488BD020174C0325260E8EFB19
:104F4C00904D4C32886512314D229649E43289C419
:104F5C00689190E412995842134B6462914C2CB3B3
:104F6C006726220D4EFB884150A2D3E424424572A1
:104F7C0032C8243426928C454834494C0691C8409A
:104F8C00B2A705270903CE4891F64400280E068ED9
:104F9C00A9A1AA50AA67A9581D00290D068E69ADB2
:104FAC0062A91EA542B5002A13080EBAA94489228B
:104FBC00A1D928129244559E43002B0E0A8EFAE476
:104FCC00C96683412CD99E0A2C0B040EF90C249A29
:104FDC009208002D0A054EF90C06790A002E0904D8
:104FEC000EF90C246A002F10054E99A14CA826949A
:104FFC0009D584F22000301B094EBA839044138AE1
:10500C0088142285482152881422492823110DF234
:10501C0004310D094EDAA941CE7F35D8C3013217C0
:10502C00094ECAAB4C914423D1C8746D8A2283417A
:10503C006430C8A3013315094EBA8350C68946A6FD
:10504C001A9A68241A494634C8133418094EEA3996
:10505C00D92AA14A8822A28826A3190C543AD560D1
:10506C008F063518094EBA83CD20150C0E42124D01
:10507C004827D14834928C6890273618094EBA8349
:10508C0090449391E87483CDC4482152882446837C
:10509C003C013714094EAA83416430888432A15CE8
:1050AC003017AC734F01381A094EBA83904413CAA7
:1050BC0068320BD120A49868162285486234C81334
:1050CC003918094EBA8390C4482152882492CD6075
:1050DC0067A2C948447B0A003A0B040EF930891EBA
:1050EC002351033B0D040EF930891E23D194440047
:1050FC003C0C0A8EFA8C650EA5EE29003D0E0A8E2C
:10510C00FADC0E067ADC60A067063E0C0A8EFAAC5E
:10511C00A40E65EE09013F1207CE999B8862A2C8C6
:10512C00A84456B1B04A8F0440250E8EFBA04150C6
:10513C00A40A66320A4526A29094682225266D227E
:10514C00998842128A98548654BA819E06411C0C46
:10515C000EFB906C74394C0823BA886C304885442B
:10516C0029514C32880CF47400421A0C0ECB832B50
:10517C00CDC837AAC14024DAA8342A8D4A23920C10
:10518C00EE2901431A0C0EFB88812233D2C822B3BC
:10519C00882E22359D656499516CA0A704441C0D82
:1051AC004EDB83814EB3325289641A9946A69169BB
:1051BC00542295487330D09303451C0C0ECB83833B
:1051CC0090AB90A448921BE8143A494E52A40A9909
:1051DC000C0EF28400461B0BCEBA83838C48A3CAF8
:1051EC00486A24B1814C2193C42431A56EB02704A4
:1051FC00471E0D4EFB9081223432CBCC32BA8C56EA
:10520C003490C8342B914AB4990D22795A00481421
:10521C000E8EEB83C560A3F257832BFF9BC162B04C
:10522C00A706490D07CE79838DCA7F33D8E3004A90
:10523C0013094ECA8395CE3719C9C446120A0DF20A
:10524C0014004B1F0D4EDB83C540235289629A9C80
:10525C0024A8102E749299462652892683C5404F55
:10526C000A4C140BCEBA839DD2AF32AA8C2A23528D
:10527C000C0EF244004D2A100EFC88816AA059BD18
:10528C004A6812AA8426A14A4C12AA8822A28A2809
:10529C0022AACC4495B1CAD80C2491819E11004EFF
:1052AC00220D4EDB83D040B20A0D4215A28A4D2846
:1052BC0032096516A19022941AA54631C94095A7CA
:1052CC00054F190D4EFB98A14665A4D2E8243A89E6
:1052DC004EA2D3A8442A1BE19E1C50170BCEBA83B6
:1052EC00231B9544255149449AC120A47437D813E3
:1052FC000251200D4EFB98A14665A4D2E8243A89B0
:10530C004E62A349448A2683946438C82A928AA898
:10531C0006521C0C0ECB83814C64A5516944A2C16E
:10532C004CB212F92222520C06193D1D00531C0AD4
:10533C008EDA8344C6441551458603D940139AA48A
:10534C00242989469318E4690054170BCEBA838339
:10535C0084C422A3496434898C26A5F4DD604F06ED
:10536C00551E0D4EDB83C940220BC942B2902C2432
:10537C000BC942B2902C244B8972033D350056194F
:10538C000C0ECB03CD6415528544314D4C929304D5
:10539C0015C1E5349B27065728100EFC8841622066
:1053AC0099685419AB904693D2685293494C9150DA
:1053BC00E41409453011490435D250349467085827
:1053CC001E0BCEBA83CC20A1D2885292D82028159D
:1053DC000E62115548A3520C32833C0D0059170C28
:1053EC000ECB83C920A24A69629A9C22A8484A3DE6
:1053FC001CEC29015A190A8EBA838144240969428A
:10540C003A439D2623CA882222C5E09E025B0B06E6
:10541C008E799B54FFAB21005C110A8ECAC968328D
:10542C009A8C26A3C968324F025D0A068E79ABFEB0
:10543C006F86005E110A8EEA42DD2016494944351A
:10544C00223DCF005F0A080EFAFC6E301002600895
:10545C00054E59ED39016115094EFA4C0621894664
:10546C00221B2934128D44B4D0A3016214094E9A24
:10547C003B7703914463A29168241A894D624F6370
:10548C001007CEF9741B85894265A6D0EC810064A7
:10549C00120A8EFA80A1AB8148A2F18F24AA859EB4
:1054AC00026514080EFAC4A34C44A3180C12329DC6
:1054BC004433C863016610068E89138591662011EA
:1054CC00F966A00701671A094EFA4C060913454202
:1054DC00A2916824A241283898881422C9600268D5
:1054EC00110A8EAA432F468B8DFFC92031C8530059
:1054FC00690D054E691AF1C64F067904006A0D054F
:10550C004E791AF1C6BF482826006B180A8EAA439A
:10551C002F061223856A101BA824228D649018E490
:10552C0029006C0B054E591BFF93411E016D150F85
:10553C00CEFB3C584C469389C6FF9F0C1283C4206B
:10554C00CF026E110A8EFAAC16A389C6FF649018AE
:10555C00E429006F14080EFAC4238544A3D0283420
:10556C000A8D4421DA83017017094EFA0C14238931
:10557C00C64423D14834129B8148271BA4007115C3
:10558C00094EFA4C261137128D4423D19888063ACD
:10559C00B34102721007CEF9540BC9C244A1723444
:1055AC00C823017312080EFAB48B889BCC6C9391B0
:1055BC009824F66000741207CEF988584A34D0A8A3
:1055CC003C8948327B2000750F0A8EFAAC261BFFF3
:1055DC008F06093D05007613094EFA0C06894142E7
:1055EC00631252A866BB609E02771B0D4EFB5C2DAE
:1055FC0006894142A2319184240AD562B6D86582CB
:10560C00993C35007816094EFA0C06898926A4486F
:10561C00ED56095146B218E4D1007915094EFA0C31
:10562C0006898926A410296277C19C48919A017A2F
:10563C0014080EFAB48349461251C9549288263282
:10564C00D843017B0D068E99A15447B154CF8200EB
:10565C007C0A0A8EEAC9FEF754007D0D068E79B1DC
:10566C005467A1548FA2007E0B0A8EFABC9B98EC57
:10567C0039010000232D302B2000686C4C0065662E
:10568C006745464700303132333435363738394187
:10569C00424344454600303132333435363738399D
:0856AC006162636465660000A1
:0456B400C501000824
:0456B800A101000844
:1056BC0000BD010500000000000000000102030411
:1056CC00060708090000000001020304010203049C
:1056DC0006070809FF00000000000000501300201E
:1056EC00B81300202014002000000000000000006F
:1056FC00000000000000000000000000000000009E
:10570C00000000000000000000000000000000008D
:10571C00000000000000000000000000000000007D
:08572C0000000000280000202D
:04000005080010C51A
:00000001FF
